{
  "_format": "hh-sol-artifact-1",
  "contractName": "Raffle",
  "sourceName": "contracts/Raffle.sol",
  "abi": [
    {
      "inputs": [
        {
          "internalType": "address",
          "name": "vrfCoordinatorV2",
          "type": "address"
        },
        {
          "internalType": "uint256",
          "name": "minimumFee",
          "type": "uint256"
        },
        {
          "internalType": "bytes32",
          "name": "gasLane",
          "type": "bytes32"
        },
        {
          "internalType": "uint16",
          "name": "subscriptionId",
          "type": "uint16"
        },
        {
          "internalType": "uint32",
          "name": "callbackGasLimit",
          "type": "uint32"
        },
        {
          "internalType": "uint256",
          "name": "interval",
          "type": "uint256"
        }
      ],
      "stateMutability": "nonpayable",
      "type": "constructor"
    },
    {
      "inputs": [
        {
          "internalType": "address",
          "name": "have",
          "type": "address"
        },
        {
          "internalType": "address",
          "name": "want",
          "type": "address"
        }
      ],
      "name": "OnlyCoordinatorCanFulfill",
      "type": "error"
    },
    {
      "inputs": [],
      "name": "Raffle__IsNotOpen",
      "type": "error"
    },
    {
      "inputs": [],
      "name": "Raffle__NotEnoughETHEntered",
      "type": "error"
    },
    {
      "inputs": [],
      "name": "Raffle__TransferFailed",
      "type": "error"
    },
    {
      "inputs": [
        {
          "internalType": "uint256",
          "name": "balance",
          "type": "uint256"
        },
        {
          "internalType": "uint256",
          "name": "numPlayers",
          "type": "uint256"
        }
      ],
      "name": "Raffle__UpkeepNotNeeded",
      "type": "error"
    },
    {
      "anonymous": false,
      "inputs": [
        {
          "indexed": true,
          "internalType": "address",
          "name": "player",
          "type": "address"
        }
      ],
      "name": "RaffleEnter",
      "type": "event"
    },
    {
      "anonymous": false,
      "inputs": [
        {
          "indexed": true,
          "internalType": "address",
          "name": "winner",
          "type": "address"
        }
      ],
      "name": "RaffleWinner",
      "type": "event"
    },
    {
      "anonymous": false,
      "inputs": [
        {
          "indexed": true,
          "internalType": "uint256",
          "name": "requestId",
          "type": "uint256"
        }
      ],
      "name": "RequestedRaffleWinner",
      "type": "event"
    },
    {
      "inputs": [
        {
          "internalType": "bytes",
          "name": "",
          "type": "bytes"
        }
      ],
      "name": "checkUpkeep",
      "outputs": [
        {
          "internalType": "bool",
          "name": "upkeepNeeded",
          "type": "bool"
        },
        {
          "internalType": "bytes",
          "name": "",
          "type": "bytes"
        }
      ],
      "stateMutability": "view",
      "type": "function"
    },
    {
      "inputs": [],
      "name": "enterRaffle",
      "outputs": [],
      "stateMutability": "payable",
      "type": "function"
    },
    {
      "inputs": [],
      "name": "getEntranceFee",
      "outputs": [
        {
          "internalType": "uint256",
          "name": "",
          "type": "uint256"
        }
      ],
      "stateMutability": "view",
      "type": "function"
    },
    {
      "inputs": [],
      "name": "getNumWords",
      "outputs": [
        {
          "internalType": "uint256",
          "name": "",
          "type": "uint256"
        }
      ],
      "stateMutability": "pure",
      "type": "function"
    },
    {
      "inputs": [
        {
          "internalType": "uint256",
          "name": "index",
          "type": "uint256"
        }
      ],
      "name": "getPlayer",
      "outputs": [
        {
          "internalType": "address",
          "name": "",
          "type": "address"
        }
      ],
      "stateMutability": "view",
      "type": "function"
    },
    {
      "inputs": [],
      "name": "getRaffleState",
      "outputs": [
        {
          "internalType": "enum Raffle.RaffleState",
          "name": "",
          "type": "uint8"
        }
      ],
      "stateMutability": "view",
      "type": "function"
    },
    {
      "inputs": [],
      "name": "getRecentWinner",
      "outputs": [
        {
          "internalType": "address",
          "name": "",
          "type": "address"
        }
      ],
      "stateMutability": "view",
      "type": "function"
    },
    {
      "inputs": [
        {
          "internalType": "bytes",
          "name": "",
          "type": "bytes"
        }
      ],
      "name": "performUpkeep",
      "outputs": [],
      "stateMutability": "nonpayable",
      "type": "function"
    },
    {
      "inputs": [
        {
          "internalType": "uint256",
          "name": "requestId",
          "type": "uint256"
        },
        {
          "internalType": "uint256[]",
          "name": "randomWords",
          "type": "uint256[]"
        }
      ],
      "name": "rawFulfillRandomWords",
      "outputs": [],
      "stateMutability": "nonpayable",
      "type": "function"
    }
  ],
  "bytecode": "0x6101606040523480156200001257600080fd5b50604051620016bb380380620016bb8339818101604052810190620000389190620001a1565b858073ffffffffffffffffffffffffffffffffffffffff1660808173ffffffffffffffffffffffffffffffffffffffff1660601b81525050508460a081815250508573ffffffffffffffffffffffffffffffffffffffff166101208173ffffffffffffffffffffffffffffffffffffffff1660601b815250508360c081815250508261ffff1660e08161ffff1660f01b815250508163ffffffff166101008163ffffffff1660e01b815250506000600160146101000a81548160ff021916908360028111156200010d576200010c620002a3565b5b02179055504260028190555080610140818152505050505050505062000359565b6000815190506200013f81620002d7565b92915050565b6000815190506200015681620002f1565b92915050565b6000815190506200016d816200030b565b92915050565b600081519050620001848162000325565b92915050565b6000815190506200019b816200033f565b92915050565b60008060008060008060c08789031215620001c157620001c0620002d2565b5b6000620001d189828a016200012e565b9650506020620001e489828a0162000173565b9550506040620001f789828a0162000145565b94505060606200020a89828a016200015c565b93505060806200021d89828a016200018a565b92505060a06200023089828a0162000173565b9150509295509295509295565b60006200024a8262000269565b9050919050565b6000819050919050565b600061ffff82169050919050565b600073ffffffffffffffffffffffffffffffffffffffff82169050919050565b6000819050919050565b600063ffffffff82169050919050565b7f4e487b7100000000000000000000000000000000000000000000000000000000600052602160045260246000fd5b600080fd5b620002e2816200023d565b8114620002ee57600080fd5b50565b620002fc8162000251565b81146200030857600080fd5b50565b62000316816200025b565b81146200032257600080fd5b50565b620003308162000289565b81146200033c57600080fd5b50565b6200034a8162000293565b81146200035657600080fd5b50565b60805160601c60a05160c05160e05160f01c6101005160e01c6101205160601c610140516112ed620003ce60003960006106d501526000610511015260006105910152600061056e0152600061054d015260008181610212015261030f01526000818161024f01526102a301526112ed6000f3fe6080604052600436106100865760003560e01c80634585e33b116100595780634585e33b14610114578063473f1ddc1461013d57806353a2c19a146101685780636e04ff0d14610193578063e55ae4e8146101d157610086565b806309bc33a71461008b578063115cbaf5146100b65780631fe543e3146100e15780632cfcc5391461010a575b600080fd5b34801561009757600080fd5b506100a061020e565b6040516100ad9190610f03565b60405180910390f35b3480156100c257600080fd5b506100cb610236565b6040516100d89190610ee8565b60405180910390f35b3480156100ed57600080fd5b5061010860048036038101906101039190610cdc565b61024d565b005b61011261030d565b005b34801561012057600080fd5b5061013b60048036038101906101369190610bec565b61047c565b005b34801561014957600080fd5b50610152610659565b60405161015f9190610e21565b60405180910390f35b34801561017457600080fd5b5061017d610683565b60405161018a9190610f03565b60405180910390f35b34801561019f57600080fd5b506101ba60048036038101906101b59190610c39565b610692565b6040516101c8929190610e65565b60405180910390f35b3480156101dd57600080fd5b506101f860048036038101906101f39190610c82565b61073f565b6040516102059190610e21565b60405180910390f35b60007f0000000000000000000000000000000000000000000000000000000000000000905090565b6000600160149054906101000a900460ff16905090565b7f000000000000000000000000000000000000000000000000000000000000000073ffffffffffffffffffffffffffffffffffffffff163373ffffffffffffffffffffffffffffffffffffffff16146102ff57337f00000000000000000000000000000000000000000000000000000000000000006040517f1cf993f40000000000000000000000000000000000000000000000000000000081526004016102f6929190610e3c565b60405180910390fd5b6103098282610786565b5050565b7f0000000000000000000000000000000000000000000000000000000000000000341015610367576040517fbd4e069500000000000000000000000000000000000000000000000000000000815260040160405180910390fd5b6000600281111561037b5761037a6111cd565b5b600160149054906101000a900460ff16600281111561039d5761039c6111cd565b5b146103d4576040517f9fea621b00000000000000000000000000000000000000000000000000000000815260040160405180910390fd5b6000339080600181540180825580915050600190039060005260206000200160009091909190916101000a81548173ffffffffffffffffffffffffffffffffffffffff021916908373ffffffffffffffffffffffffffffffffffffffff1602179055503373ffffffffffffffffffffffffffffffffffffffff167f0805e1d667bddb8a95f0f09880cf94f403fb596ce79928d9f29b74203ba284d460405160405180910390a2565b600061049660405180602001604052806000815250610692565b509050806104e257476000805490506040517f75c3d3dc0000000000000000000000000000000000000000000000000000000081526004016104d9929190610f1e565b60405180910390fd5b6002600160146101000a81548160ff02191690836002811115610508576105076111cd565b5b021790555060007f000000000000000000000000000000000000000000000000000000000000000073ffffffffffffffffffffffffffffffffffffffff16635d3b1d307f00000000000000000000000000000000000000000000000000000000000000007f000000000000000000000000000000000000000000000000000000000000000060037f000000000000000000000000000000000000000000000000000000000000000060016040518663ffffffff1660e01b81526004016105d2959493929190610e95565b602060405180830381600087803b1580156105ec57600080fd5b505af1158015610600573d6000803e3d6000fd5b505050506040513d601f19601f820116820180604052508101906106249190610caf565b9050807fcd6e45c8998311cab7e9d4385596cac867e20a0587194b954fa3a731c93ce78b60405160405180910390a250505050565b6000600160009054906101000a900473ffffffffffffffffffffffffffffffffffffffff16905090565b6000600163ffffffff16905090565b600060606000600160149054906101000a900460ff1660028111156106ba576106b96111cd565b5b600060028111156106ce576106cd6111cd565b5b14905060007f0000000000000000000000000000000000000000000000000000000000000000600254426107029190610ff0565b119050600080600080549050119050600080471190508380156107225750825b801561072b5750815b80156107345750805b955050505050915091565b6000808281548110610754576107536111fc565b5b9060005260206000200160009054906101000a900473ffffffffffffffffffffffffffffffffffffffff169050919050565b60008080549050826000815181106107a1576107a06111fc565b5b60200260200101516107b3919061113e565b905060008082815481106107ca576107c96111fc565b5b9060005260206000200160009054906101000a900473ffffffffffffffffffffffffffffffffffffffff16905080600160006101000a81548173ffffffffffffffffffffffffffffffffffffffff021916908373ffffffffffffffffffffffffffffffffffffffff16021790555060008173ffffffffffffffffffffffffffffffffffffffff164760405161085e90610e0c565b60006040518083038185875af1925050503d806000811461089b576040519150601f19603f3d011682016040523d82523d6000602084013e6108a0565b606091505b505090506000600160146101000a81548160ff021916908360028111156108ca576108c96111cd565b5b0217905550600067ffffffffffffffff8111156108ea576108e961122b565b5b6040519080825280602002602001820160405280156109185781602001602082028036833780820191505090505b506000908051906020019061092e9291906109b7565b50426002819055508061096d576040517fa1d04b3900000000000000000000000000000000000000000000000000000000815260040160405180910390fd5b8173ffffffffffffffffffffffffffffffffffffffff167f16d6ae18ca26331fba5a8b53b0749a009d33b172b68a49d64a767782f5b6010360405160405180910390a25050505050565b828054828255906000526020600020908101928215610a30579160200282015b82811115610a2f5782518260006101000a81548173ffffffffffffffffffffffffffffffffffffffff021916908373ffffffffffffffffffffffffffffffffffffffff160217905550916020019190600101906109d7565b5b509050610a3d9190610a41565b5090565b5b80821115610a5a576000816000905550600101610a42565b5090565b6000610a71610a6c84610f6c565b610f47565b90508083825260208201905082856020860282011115610a9457610a93611264565b5b60005b85811015610ac45781610aaa8882610bc2565b845260208401935060208301925050600181019050610a97565b5050509392505050565b6000610ae1610adc84610f98565b610f47565b905082815260208101848484011115610afd57610afc611269565b5b610b088482856110cb565b509392505050565b600082601f830112610b2557610b2461125f565b5b8135610b35848260208601610a5e565b91505092915050565b60008083601f840112610b5457610b5361125f565b5b8235905067ffffffffffffffff811115610b7157610b7061125a565b5b602083019150836001820283011115610b8d57610b8c611264565b5b9250929050565b600082601f830112610ba957610ba861125f565b5b8135610bb9848260208601610ace565b91505092915050565b600081359050610bd1816112a0565b92915050565b600081519050610be6816112a0565b92915050565b60008060208385031215610c0357610c02611273565b5b600083013567ffffffffffffffff811115610c2157610c2061126e565b5b610c2d85828601610b3e565b92509250509250929050565b600060208284031215610c4f57610c4e611273565b5b600082013567ffffffffffffffff811115610c6d57610c6c61126e565b5b610c7984828501610b94565b91505092915050565b600060208284031215610c9857610c97611273565b5b6000610ca684828501610bc2565b91505092915050565b600060208284031215610cc557610cc4611273565b5b6000610cd384828501610bd7565b91505092915050565b60008060408385031215610cf357610cf2611273565b5b6000610d0185828601610bc2565b925050602083013567ffffffffffffffff811115610d2257610d2161126e565b5b610d2e85828601610b10565b9150509250929050565b610d4181611024565b82525050565b610d5081611036565b82525050565b610d5f81611042565b82525050565b6000610d7082610fc9565b610d7a8185610fd4565b9350610d8a8185602086016110da565b610d9381611278565b840191505092915050565b610da7816110a7565b82525050565b6000610dba600083610fe5565b9150610dc582611289565b600082019050919050565b610dd98161105f565b82525050565b610de8816110b9565b82525050565b610df78161108d565b82525050565b610e0681611097565b82525050565b6000610e1782610dad565b9150819050919050565b6000602082019050610e366000830184610d38565b92915050565b6000604082019050610e516000830185610d38565b610e5e6020830184610d38565b9392505050565b6000604082019050610e7a6000830185610d47565b8181036020830152610e8c8184610d65565b90509392505050565b600060a082019050610eaa6000830188610d56565b610eb76020830187610ddf565b610ec46040830186610dd0565b610ed16060830185610dfd565b610ede6080830184610dfd565b9695505050505050565b6000602082019050610efd6000830184610d9e565b92915050565b6000602082019050610f186000830184610dee565b92915050565b6000604082019050610f336000830185610dee565b610f406020830184610dee565b9392505050565b6000610f51610f62565b9050610f5d828261110d565b919050565b6000604051905090565b600067ffffffffffffffff821115610f8757610f8661122b565b5b602082029050602081019050919050565b600067ffffffffffffffff821115610fb357610fb261122b565b5b610fbc82611278565b9050602081019050919050565b600081519050919050565b600082825260208201905092915050565b600081905092915050565b6000610ffb8261108d565b91506110068361108d565b9250828210156110195761101861116f565b5b828203905092915050565b600061102f8261106d565b9050919050565b60008115159050919050565b6000819050919050565b600081905061105a8261128c565b919050565b600061ffff82169050919050565b600073ffffffffffffffffffffffffffffffffffffffff82169050919050565b6000819050919050565b600063ffffffff82169050919050565b60006110b28261104c565b9050919050565b60006110c48261105f565b9050919050565b82818337600083830152505050565b60005b838110156110f85780820151818401526020810190506110dd565b83811115611107576000848401525b50505050565b61111682611278565b810181811067ffffffffffffffff821117156111355761113461122b565b5b80604052505050565b60006111498261108d565b91506111548361108d565b9250826111645761116361119e565b5b828206905092915050565b7f4e487b7100000000000000000000000000000000000000000000000000000000600052601160045260246000fd5b7f4e487b7100000000000000000000000000000000000000000000000000000000600052601260045260246000fd5b7f4e487b7100000000000000000000000000000000000000000000000000000000600052602160045260246000fd5b7f4e487b7100000000000000000000000000000000000000000000000000000000600052603260045260246000fd5b7f4e487b7100000000000000000000000000000000000000000000000000000000600052604160045260246000fd5b600080fd5b600080fd5b600080fd5b600080fd5b600080fd5b600080fd5b6000601f19601f8301169050919050565b50565b6003811061129d5761129c6111cd565b5b50565b6112a98161108d565b81146112b457600080fd5b5056fea264697066735822122095086d4b18d3dfc07dea40f4126fbc4e2c72916dfc4cb0afc8af2294284d486964736f6c63430008070033",
  "linkReferences": {},
  "deployedLinkReferences": {}
}